:100000000C9477170C9400000C9400000C942618A4
:100010000C9400000C9400000C9400000C94000060
:100020000C9400000C9400000C9400000C94E51754
:100030000C9400000C9400000C9400000C94000040
:100040000C9400000C9400000C9400000C94000030
:040050000C9400000C
:102EEE00BFE5BDBFB8E0BEBF0E94041ACDB7DEB7C6
:102EFE002297CDBFDEBF21962F923F924F925F92C7
:102F0E00D8DE10DEB3E3B9B9B0E0B0BD3DDCA1DD73
:102F1E00BCE02B2E12DEBA98BFB7B068BFBFB0E2CE
:102F2E00BBBFB3E82B2EB0E03B2E1BDBB0E0B09363
:102F3E00AA00ACDE96DD009362001093630091DD73
:102F4E00088319832801B1E03B2EB1E02B2E59DD09
:102F5E00288139810091A80010E00217130744F56B
:102F6E0025E01FE002EF0A95F1F71A95E1F72A9591
:102F7E00D1F777DD088319832091A80030E0201760
:102F8E003107B4F4B6E72B2EB0E03B2EDDDB288103
:102F9E0039810091A80010E00217130724F461DDB7
:102FAE0008831983F4CFB6E62B2EB0E03B2ECCDB94
:0C2FBE00C6CF5F904F903F902F90FFCF48
:102CC000B0913200B77FB0933200B0913200BB7F39
:102CD000B0933200B0913200BF7EB0933200B09119
:102CE0003200BF7DB0933200B0913200BF7BB09311
:102CF0003200B0913800BF77B0933800B091310006
:102D0000B860B0933100B0913100B460B09331003D
:102D1000B0913700B068B0933700B0913100B06423
:102D2000B0933100B0913100B062B0933100B091F6
:102D30003100B061B09331004ADC49DC48DCB0912D
:102D40003200B064B0933200B0913800B068B093F4
:102D50003800B0913200B860B093320003DCB0911B
:102D60003200B77FB093320032DCB0913200B860ED
:102D7000B0933200F7DBB0913200B77FB0933200EE
:102D800026DCB0913200B860B0933200EBDBB0913A
:102D90003200B77FB09332001ADCB0913800BF77B1
:102DA000B0933800B0913200B860B0933200DADBF3
:102DB000B0913200B77FB093320009DCB09132009D
:102DC000B860B0933200CEDBB0913200B77FB093E1
:102DD0003200B0913200BF7BB0933200B09132002C
:102DE000B061B0933200B0913200B860B09332005D
:102DF000B9DBB0913200B77FB0933200E8DBB0911D
:102E00003200BF7EB0933200B0913800B068B0930A
:102E10003800B0913200B860B0933200A3DBB091BB
:102E20003200B77FB0933200B0913800BF77B093D3
:102E30003800B0913200B860B093320093DBB091AB
:102E40003200B77FB0933200C2DBB0913200B8607D
:102E5000B093320087DBB0913200B77FB09332007D
:102E6000B0913800B068B0933800B0913200B860CB
:102E7000B093320077DBB0913200B77FB09332006D
:102E8000A6DBB0913800BF77B0933800B091320024
:102E9000B860B093320066DBB0913200B77FB09378
:102EA0003200B0913200B061B0933200B091320084
:102EB000B062B0933200B0913200B064B09332008F
:102EC000B0913800B068B0933800B0913200B8606B
:102ED000B093320047DBB0913200B77FB09332003D
:0E2EE00076DBB091D900B160B093D9000895AF
:1025CE001AE303E20A95F1F71A95E1F7000000000D
:0225DE0008955E
:0C25640002E00A95F1F700000000089565
:102B3200BBE9B093D700B4E0B093D800B7E8B6B918
:062B4200B0E0B7B90895F0
:102A6000B4E0B3BF09B7016009BFB3E8B2BF0895CE
:002A700066
:102B480027FAB0913200B4F9B093320026FAB09166
:102B58003200B5F9B093320025FAB0913200B6F9D7
:102B6800B093320024FAB0913800B7F9B093380026
:102B7800B091D90000903200E894B0FF689402F850
:102B880000923200B0913200B860B0933200E6DCB7
:102B9800B0913200B77FB093320023FAB09132007F
:102BA800B4F9B093320022FAB0913200B5F9B0937B
:102BB800320021FAB0913200B6F9B093320020FA0F
:102BC800B0913800B7F9B0933800B091D9000090AF
:102BD8003200E894B0FF689402F800923200B09195
:102BE8003200B860B0933200B9DCB0913200B77FE0
:102BF800B0933200B091D900B0FF02C0E4DC01C04C
:042C0800CBDC089584
:0A25A00005E80A95F1F70000089520
:1025700010E0F1010081202F022F003081F03F9206
:102580002F92202E0E94D2042F903F90012F0F5F98
:10259000102FE02FF0E0E20DF31D0081EECF089543
:0025A0003B
:1009A400BBB1B5FD01C0FCCFBBB1B6FF03C0BBB149
:0809B400B064BBB92CB8089532
:102C9A002F923F92B0E62B2EB0E03B2E48DD0093F8
:102CAA00A800B0E12B2EB0E03B2E41DD0093A90035
:062CBA003F902F900895E9
:102738000CB301FF01C0FCCFB0E0BDBB022D0EBB46
:0E274800E09A0DB3003009F4FCCF0DB30895F4
:102A70002F923F924F925F926F927F928F929F928E
:102A80002224BADDB8ED8B2EBFEF9B2EB7E34B2E81
:102A9000BFEE5B2EB3EA6B2EB1E47B2E1801B0E0E3
:102AA000BF93BDE7BF93B3E4BF93B3EBBF93BDE464
:102AB000BF93B4EABF93DADDADB7BEB71696ADBF2C
:102AC000BEBFB8010090620010906300A8014019D9
:102AD00051092091600030916100240F351F20932F
:102AE00060003093610000936200109363000091D6
:102AF000640010916500103009F4003081F40091F9
:102B0000600010916100061B170B0093600010938A
:102B10006100B8EEB0936400B3E0B09365008B0140
:102B20009F908F907F906F905F904F903F902F90ED
:022B3000089506
:10266C00CF93DF93CDB7DEB72C97CDBFDEBF2196CE
:10267C00088919892A893B89088B198B2A8B3B8BF2
:10268C000C891D890C8B1D8B810120E037FC2FEFF1
:10269C00322F53DF9F928F92A201B30152DF8F90A2
:1026AC009F90088719872A873B870C891D890819F1
:1026BC00190920E017FD2FEF322F3FDF4885598590
:1026CC006A857B859F928F922DDF088719872A87D1
:1026DC003B87A201B301088919892A893B8931DF1B
:1026EC00088319832A833B83088519852A853B85B2
:1026FC00488159816A817B810ADF8F909F9008877E
:10270C0019872A873B87840120E097FC2FEF322F13
:10271C0014DF488559856A857B85EEDE0E94AE0400
:0C272C002B96CDBFDEBFDF91CF9108954A
:08254600E8940E948E04089540
:10091C0047E16627552726F0332312F4DADB60E82B
:04092C006DDC0895E1
:1000DE0000951095209530950F5F1F4F2F4F3F4F76
:0200EE00089573
:1002080045DF11F19F938F938EE790E0332351F0F0
:10021800369527951795079548175907B4F44F5FF2
:100228005F4FF4CF80959095019622239AF0000FA6
:10023800111F221F481759071CF041505040F5CF95
:10024800002711272227332708C033270FEF102F45
:0C0258002FE7322F8F919F9121DF089536
:10009400002329F4112319F4222309F433230895A6
:0000A4005C
:1000A400F7DF39F041585F4F342F220F36952795EB
:0400B400362B08954A
:10254E00042E152E262E372E0E949804002E112EA4
:06255E00222E332E089529
:0609300068940FDC08953D
:10015200B2DF09F441C0E62ED52EC42EB32EA22E54
:10016200912E802E002D112D222D332DA4DF09F486
:100172003DC0842F952F8C199D09B9F072F490958A
:10018200809501964C2D5D2D883180F5359527950A
:10019200179507950197D1F708C08831E8F4B5940F
:1001A200A794979487940197D1F766272EF0080DAC
:1001B200191D2A1D3B1D09C0801A910AA20AB30A01
:1001C200082D192D2A2D3B2D332312F487DF60E8E9
:1001D2001AD001C066DF16C0002D112D222D332D3D
:1001E200D6F757DFC1F340E83427F5CF082D192D94
:1001F2002A2D3B2D4C2D5D2D6E2D33235AF76EDFAC
:0602020060E8E8CF08955A
:0E00B800CDDF21F0662309F00ED09894089554
:100054001FD079F0632F6078220F331F432F5FE79F
:10006400451B55275040269530E8232B3327989479
:0A00740003C04427552766270895AE
:10253000042E152E262E372E0E948E01002E112ECF
:06254000222E332E089547
:10031C009BDE81F1E62ED52EC42EB32EA22E912E6D
:10032C00802E002D112D222D332D8EDE19F16E25F0
:10033C004C0D5D1D40385307F4F441387FEF5707DF
:10034C00FCF088279927AA27BB2770E2B695A795BA
:10035C0097958795379527951795079520F4880DD0
:10036C00991DAA1DBB1D7A9589F7032F3A2F292FAA
:10037C00182F44DF0AC00FEF102F2FE73FE7FACFFB
:0C038C000027102F202F302FF5CF0895F0
:10251A00042E152E262E372E0E943201002E112E41
:06252A00222E332E08955D
:100264003F932F931F930F93002D112D222D332D88
:10027400EFDE09F44BC0E62ED52EC42EB32EA22EEB
:10028400912E802E0F911F912F913F91E1DE61F10C
:100294006E254C195D09403853073CF541387FEF12
:1002A40057077CF180E27724632E522E412E302FA3
:1002B400222711270027000F111F221F331F441C60
:1002C400551C661C771C28F0481859086A087B08D6
:1002D40004C0480C591C6A1C7B1C0AF001608A95F6
:1002E40051F7415050408EDF16C00FEF102F2FE70B
:1002F4003FE76623C9F3CCDEB9F3342D30E8342567
:10030400F3CF0027102F202F302FEECF0F900F9018
:080314000F900F90EACF08954D
:10250400042E152E262E372E0E94CC01002E112EBD
:06251400222E332E089573
:06039800E894DBDE08958D
:10095C007BDBF1F05523C2F04F31A8F44731C1F0E5
:10096C0050F44195495E05C0359527951795079527
:10097C004A95D1F70DC04751000F111F221F331F8D
:10098C004A95D1F705C03FE7232F132F032F03C040
:08099C00662309F09EDB0895BB
:0825F8009CD20E949B0408958F
:1009360007B1007E022907B9B6B1B064B6B9B6B13F
:10094600B6FF01C0FCCF24B130E005B1102F00275F
:06095600022B132B089593
:102A1000CF93DF93CDB7DEB76097CDBFDEBF2196F2
:102A20004F925F928E013F922F925F924F92B3E34B
:102A3000BF93B8EFBF931F930F93E2DDADB7BEB75F
:102A40001696ADBFBEBF2F903F908E012801DED0FD
:102A50005F904F902F96CDBFDEBFDF91CF9108954D
:002A600076
:10260000CF93DF93CDB7DEB72297CDBFDEBF219644
:102610002F923F924F925F926F927F922E813F81D5
:10262000FE018E01085F1F4F0E5F1F4F0193119334
:102630008E013F932F9338014884598419010E94D9
:10264000DE042F913F91A801F801E20FF31FB0E0E3
:10265000B0838A017F906F905F904F903F902F9052
:0C2660002196CDBFDEBFDF91CF91089521
:1009BC00CF93DF93CDB7DEB7A397CDBFDEBF219624
:1009CC00B0E0B98FBA8FF20182010F5F1F4F28017F
:1009DC0004910A87002311F40C947A120A850532CB
:1009EC0071F00A85F101008381010F5F1F4F18011F
:1009FC00098D1A8D0F5F1F4F098F1A8FE4CFB0E04E
:100A0C00BB87BC87B0E0BD87BE8732C00D851E8515
:100A1C0008600D871E8782010F5F1F4F28013DC0A4
:100A2C000D851E8501600D871E8782010F5F1F4F8C
:100A3C00280133C00D851E8502600D871E8782013B
:100A4C000F5F1F4F280129C00D851E8518600D876B
:100A5C001E8782010F5F1F4F28011FC00D851E8549
:100A6C0004600D871E8782010F5F1F4F280115C080
:100A7C00F20104910D3251F2F2010491003281F233
:100A8C00F20104910B32B1F2F20104910332E1F262
:100A9C00F2010491003311F301C0B7CF0D851E850F
:100AAC0001FF05C00D851E850E7F0D871E870D85E8
:100ABC001E8503FF05C00D851E850B7F0D871E87C8
:100ACC00F201049110E03F922F92202E43DE2F90E2
:100ADC003F90002309F1B0E0BB87BC870B851C85D8
:100AEC004AE050E041DEF2012491020FB0E01B1FFE
:100AFC00005310400B871C8782010F5F1F4F28018A
:100B0C00F801049110E03F922F92202E23DE2F90BB
:100B1C003F90002319F716C0F20104910A3291F4A8
:100B2C00F30121913191F901019111910B871C87EE
:100B3C0089010E5F1F4FF3010193119382010F5F27
:100B4C001F4F2801F20104910E3209F03DC08201C1
:100B5C000F5F1F4F2801F80104910A3299F4F30139
:100B6C0021913191F901019111910887198789011E
:100B7C000E5F1F4FF3010193119382010F5F1F4F03
:100B8C00280121C0B0E0B887B987F201049110E0C8
:100B9C003F922F92202EDEDD2F903F90002399F074
:100BAC00088519854AE050E0DFDDF2012491020F3F
:100BBC00B0E01B1F005310400887198782010F5F9C
:100BCC001F4F2801E2CF08C0B0E0B887B9870D8568
:100BDC001E8510610D871E87F20182010F5F1F4F6A
:100BEC00280104910A87FEC0098D1A8D0C947C1281
:100BFC000D851E8500610D871E87EECF0D851E8528
:100C0C0014600D871E872FC10D851E8500620D8710
:100C1C001E870D851E8511600D871E8724C10D85CD
:100C2C001E8512600D871E871EC10D851E850064F2
:100C3C000D871E8718C117C10D851E8500620D8793
:100C4C001E870D851E8500680D871E870CC1F3015C
:100C5C0001911191F801019111910D8B1E8BF301F2
:100C6C00019111910E5F1F4FF301019311930D89A7
:100C7C001E89103009F4003021F4B0EDBD8BB0E0CA
:100C8C00BE8BB0E0BF8BB88F2D893E890F89188D34
:100C9C00F801E20FF31F0081002339F00F89188D42
:100CAC000F5F1F4F0F8B188FEFCF08851985B02F53
:100CBC00B12B59F0288539850F89188D20173107EC
:100CCC0020F4088519850F8B188F2B853C850F898F
:100CDC00188D0217130748F40F88188C0B851C8588
:100CEC00001911090B871C8703C0B0E0BB87BC87B8
:100CFC000D851E8503FD19C02B853C850B851C8538
:100D0C00015010400B871C87B22FB32B71F0F101EF
:100D1C00B0E2B08381010F5F1F4F1801098D1A8D4E
:100D2C000F5F1F4F098F1A8FE7CF2F89388D0F89CF
:100D3C00188D015010400F8B188FB22FB32BB1F0C0
:100D4C00ED89FE890081F101008381010F5F1F4F46
:100D5C0018010D891E890F5F1F4F0D8B1E8B098D7E
:100D6C001A8D0F5F1F4F098F1A8FDFCF0D851E85D0
:100D7C0003FF19C02B853C850B851C850150104049
:100D8C000B871C87B22FB32B71F0F101B0E2B0834B
:100D9C0081010F5F1F4F1801098D1A8D0F5F1F4FB7
:100DAC00098F1A8FE7CF0FCEF30101911191F80142
:100DBC0000810A87F301019111910E5F1F4FF3011E
:100DCC00019311938E01065F1F4F0D8B1E8BB1E0AB
:100DDC00BF8BB0E0B88F69CF0D851E85006C0D8779
:100DEC001E8741C00A85003009F4FECE0A850C36F8
:100DFC0009F4FECE0A850C3409F4FACE0A850636BF
:100E0C0009F4FCCE0A85053409F4FECE0A850536B4
:100E1C0009F4FFCE0A85073609F401CF0A850F368F
:100E2C0009F403CF0A85043609F405CF0A8509367F
:100E3C0009F401CF0A85003709F4FECE0A8508357E
:100E4C0009F4FACE0A85083709F4FBCE0A85033774
:100E5C0009F4FDCE0A85033609F4A6CF0A850537B9
:100E6C0009F4BACFAFCF0D851E8500701770B02F67
:100E7C00B12B09F4C3C70D851E8514FF04C0B6E061
:100E8C00B887B0E0B987F30101911191F801019194
:100E9C001191219131910F87188B298B3A8BF3018A
:100EAC00019111910C5F1F4FF301019311933F922C
:100EBC002F9240E050E060E070E00F85188929899E
:100ECC003A899ADA002800E009F001E02F903F906F
:100EDC000023A9F00F85188929893A89B0E00B27DE
:100EEC00B0E01B27B0E02B27B0E83B270F87188B0F
:100EFC00298B3A8B0D851E8503600D871E87B0E00C
:100F0C00BB8BBC8B3F922F920F85188929893A890C
:100F1C0040E050E060E070E043DA002800E009F0C7
:100F2C0001E02F903F90002309F48CC0AE014D5E80
:100F3C005F4FFE013F960191119121913191B7E1E3
:100F4C003695279517950795BA95D1F710700E57CA
:100F5C001040FA01019311930B891C890150104028
:100F6C000B8B1C8B43E050E0FFDB0B8B1C8B7F92BD
:100F7C006F925F924F923F922F924AE050E0B2D81C
:100F8C008B012F903F904F905F906F907F900B8BC9
:100F9C001C8B20E030E00217130734F40B891C89FA
:100FAC00015010400B8B1C8B0B8800E000197F92BA
:100FBC006F925F924F923F922F92202E24DA2F90B5
:100FCC003F904F905F906F907F903F922F924F8504
:100FDC00588969897A890E9498120D8B1E8B2F8BE8
:100FEC00388F40E050E060E87FE30D891E892F893F
:100FFC00388D02DA002800E009F001E02F903F90D4
:10100C00002339F00B891C89015010400B8B1C8B71
:10101C0019C03F922F9240E050E060E271E40D89DC
:10102C001E892F89388DB5D9002800E009F001E020
:10103C002F903F90002331F00B891C890F5F1F4FBD
:10104C000B8B1C8B2B893C8900E010E002171307DB
:10105C001CF0B1E0BA8702C00B890A870D851E858A
:10106C0010FD15C00D851E8511FF10C02B893C8904
:10107C000CEF1FEF2017310744F02B893C890885B2
:10108C001985201731070CF401C001C05CC3088519
:10109C001985B02FB12B51F00D851E8511FF06C09F
:1010AC0008851985015010400887198728853985CE
:1010BC0008E010E00217130718F4B8E0BA8702C072
:1010CC0008850A873F922F920F85188929893A89BA
:1010DC0040E050E060E070E063D9002800E009F0E7
:1010EC0001E02F903F90002309F4BEC07F926F92D5
:1010FC005F924F923F922F922B8885D9A801B9010C
:10110C000F85188929893A890E948D120F87188BAF
:10111C00298B3A8B0A8400E00019202E74D9A8017F
:10112C00B9010F85188929893A890E948D122F904F
:10113C003F904F905F906F907F900F87188B298B0B
:10114C003A8B06DC56D93F922F92A801B9010F8534
:10115C00188929893A890E94A71240E050E060E082
:10116C007FE317D90028B0E009F0B1E00B2F2F90E6
:10117C003F90002391F03F922F920F851889298977
:10118C003A8940E050E060E07FE30E9482122F90A9
:10119C003F900F87188B298B3A8B0F8518892989DB
:1011AC003A89D6DB4A8550E04F5F5F4FBA01660F34
:1011BC00771F660F771F4DE753E3FB01E40FF51F15
:1011CC0045915591659175910417150726073707B9
:1011DC00C8F03F922F920F85188929893A894DECD6
:1011EC005CEC6CEC7DE30E9498122F903F900F8783
:1011FC00188B298B3A8B0B891C890F5F1F4F0B8B1C
:10120C001C8B32C00F85188929893A89A1DB4A8544
:10121C00642F70E0660F771F660F771F4DE753E35F
:10122C00FB01E40FF51F45915591659175910417DC
:10123C00150726073707C0F43F922F920F851889A0
:10124C0029893A8940E050E060E271E40E949812EA
:10125C002F903F900F87188B298B3A8B0B891C8909
:10126C00015010400B8B1C8B0D851E8511FF70C01F
:10127C000D851E8513FD6CC0288539850AE010E0AC
:10128C000217130724F4BAE0B887B0E0B9870F85CA
:10129C00188929893A895CDB0D8B1E8B2F8B388F33
:1012AC000D891E892F89388DB02FB12BB22BB32B02
:1012BC0049F14AE050E060E070E00D891E892F8909
:1012CC00388D75D88D019F01303029F4203019F4F8
:1012DC00103009F40030B1F4088519850150104024
:1012EC00088719874AE050E060E070E00D891E899C
:1012FC002F89388D5CD88B019C010D8B1E8B2F8B0D
:10130C00388FCECF188529850A851017B0E02B07AA
:10131C00FCF408840A8500197F926F925F924F92B9
:10132C003F922F92202E6FD8A801B9010F851889F2
:10133C0029893A890E948D122F903F904F905F908F
:10134C006F907F900F87188B298B3A8B08850A87B3
:10135C002885398589010B5F1F4F08010B851C857A
:10136C00001911090B871C87B22FB32B29F40D859B
:10137C001E8513FD01C006C00B851C850150104055
:10138C000B871C870D851E8503701070B02FB12B39
:10139C0031F00B851C85015010400B871C870D8587
:1013AC001E8502FF48C00D851E8501FF17C00D85E7
:1013BC001E8500FF03C0BDE2B88302C0BBE2B88348
:1013CC000881F101008381010F5F1F4F1801098D06
:1013DC001A8D0F5F1F4F098F1A8F11C00D851E8537
:1013EC0000FF0DC0F101B0E2B08381010F5F1F4F10
:1013FC001801098D1A8D0F5F1F4F098F1A8F2B85BE
:10140C003C8500E010E002171307A4F4F101B0E3EF
:10141C00B08381010F5F1F4F1801098D1A8D0F5F6B
:10142C001F4F098F1A8F0B851C85015010400B879D
:10143C001C87E5CF4BC00D851E8503FD1BC02B857E
:10144C003C8500E010E002171307A4F4F101B0E2B0
:10145C00B08381010F5F1F4F1801098D1A8D0F5F2B
:10146C001F4F098F1A8F0B851C85015010400B875D
:10147C001C87E5CF0D851E8501FF17C00D851E85C8
:10148C0000FF03C0BDE2B98302C0BBE2B98309818E
:10149C00F101008381010F5F1F4F1801098D1A8D17
:1014AC000F5F1F4F098F1A8F11C00D851E8500FF0E
:1014BC000DC0F101B0E2B08381010F5F1F4F180125
:1014CC00098D1A8D0F5F1F4F098F1A8F0F85188981
:1014DC0029893A893DDA0D8B1E8B2F8B388F0A8523
:1014EC00202F30E0220F331F220F331F0DE713E3A1
:1014FC00F901E00FF11F45915591659175910D8999
:10150C001E892F89388D0E94DD018B019C01005DA5
:10151C00F101008381010F5F1F4F1801098D1A8D96
:10152C000F5F1F4F098F1A8F08851985B02FB12BAC
:10153C0029F40D851E8513FD01C062C0F101BEE2C8
:10154C00B08381010F5F1F4F1801098D1A8D0F5F3A
:10155C001F4F098F1A8F0A84B0E01B2E088519853E
:10156C0000191109088719870A85002381F10A855A
:10157C0001500A87202F30E0220F331F220F331F18
:10158C000DE713E3F901E00FF11F459155916591BA
:10159C0075910D891E892F89388D0E94DD018B0173
:1015AC009C014AE050E060E070E00E94DD018D019A
:1015BC009F01005DF101008381010F5F1F4F180136
:1015CC00098D1A8D0F5F1F4F098F1A8FCDCF08858C
:1015DC001985B02FB12BA1F0F101B0E3B0838101DB
:1015EC000F5F1F4F1801098D1A8D0F5F1F4F098F49
:1015FC001A8F088519850150104008871987E7CF85
:10160C000D851E8505FF0EC0F101B5E4B083810187
:10161C000F5F1F4F1801098D1A8D0F5F1F4F098F18
:10162C001A8F0DC0F101B5E6B08381010F5F1F4F1A
:10163C001801098D1A8D0F5F1F4F098F1A8F2B8977
:10164C003C8900E010E020173107B4F40B881C88AB
:10165C0000E010E0001911090B8B1C8BF101BDE2AD
:10166C00B08381010F5F1F4F1801098D1A8D0F5F19
:10167C001F4F098F1A8F0DC0F101BBE2B08381019E
:10168C000F5F1F4F1801098D1A8D0F5F1F4F098FA8
:10169C001A8F7F926F925F924F923F922F924AE0F5
:1016AC0050E00B891C890E9478008B012F903F9091
:1016BC00005DF101008381010F5F1F4F1801098D3F
:1016CC001A8D0F5F1F4F098F1A8F3F922F924AE08E
:1016DC0050E00B891C890E9478008C012F903F9060
:1016EC004F905F906F907F90005DF10100838101BE
:1016FC000F5F1F4F1801098D1A8D0F5F1F4F098F38
:10170C001A8F0D851E8503FF1DC02B853C8500E0BF
:10171C0010E002171307B4F4F101B0E2B0838101B9
:10172C000F5F1F4F1801098D1A8D0F5F1F4F098F07
:10173C001A8F0B851C85015010400B871C87B02F0E
:10174C00B12B51F740C90D851E8511FFAEC02B89F9
:10175C003C8900E010E0201731075CF40B891C89F0
:10176C0001501040080108851985001911090887D6
:10177C0019870F85188929893A89EAD80D8B1E8B10
:10178C002F8B388FB1E0BA870A850A30F1F00A85C1
:10179C00202F30E0220F331F220F331F0DE713E3EE
:1017AC00F901E00FF11F45915591659175910D89E6
:1017BC001E892F89388D041715072607370708F45B
:1017CC0004C00A850F5F0A87DFCF0A84B0E01B2EA6
:1017DC000885198500191109088719870D891E8933
:1017EC002F89388D0E94FF013F922F92A801B901D9
:1017FC000F85188929893A89A4D62F903F900F8F8D
:10180C0018A329A33AA37F926F925F924F923F92B3
:10181C002F9228840E9409022F903F904F905F9046
:10182C006F907F904F8D58A169A17AA13F922F9212
:10183C0079D640E050E060E07FE35ED62F903F9099
:10184C0087D80D8B1E8B2F8B388F08851985B02F61
:10185C00B12B59F14AE050E060E070E00D891E892F
:10186C002F89388D0E94DD018D019F01303029F4C4
:10187C00203019F4103009F40030B9F44AE050E08B
:10188C0060E070E00D891E892F89388D0E94DD0182
:10189C008B019C010D8B1E8B2F8B388F0885198526
:1018AC000150104008871987D0CF288539850CE066
:1018BC0010E00217130784F03F922F9228840E94A5
:1018CC00CD034F85588969897A8916D62F903F9018
:1018DC000F87188B298B3A8B3F922F920F85188983
:1018EC0029893A8940E050E060E070E00E94D6011E
:1018FC00002800E009F001E02F903F90002309F44C
:10190C006CC00F85188929893A8922D8303029F47E
:10191C00203019F4103009F4003009F05EC02B8926
:10192C003C8901E010E0021713070CF056C07F92BF
:10193C006F925F924F923F922F922B880E940902D6
:10194C00A801B9010F85188929893A89E0D52F900A
:10195C003F904F905F906F907F903F922F924FE50A
:10196C0050E769E870E40E9402020028B0E009F038
:10197C00B1E00B2F2F903F90002339F00B891C897D
:10198C00095010400B8B1C8B06C00B891C8908500E
:10199C0010400B8B1C8B7F926F925F924F923F92F9
:1019AC002F922B880E940902A801B9010F85188972
:1019BC0029893A89ACD52F903F904F905F906F90CA
:1019CC007F900E94AE040D8B1E8B2F8B388FB0E056
:1019DC00BF87B88BB98BBA8B22C00F851889298920
:1019EC003A890E94AE040D8B1E8B2F8B388F0D897C
:1019FC001E892F89388D0E94FF013F922F92A801DA
:101A0C00B9010F85188929893A899BD52F903F9068
:101A1C000F87188B298B3A8BB0E0BB8BBC8BB1E05A
:101A2C00BA870A850A30F1F00A85202F30E0220FA0
:101A3C00331F220F331F0DE713E3F901E00FF11FE2
:101A4C0045915591659175910D891E892F89388D18
:101A5C00041715072607370708F404C00A850F5F1B
:101A6C000A87DFCF488559850A85202F30E0240F5F
:101A7C00351F0B891C89020F131F08010B851C8550
:101A8C00001911090B871C870D851E8513FD06C0D7
:101A9C0008851985B02FB12B09F406C00B851C8560
:101AAC00015010400B871C870D851E85037010702C
:101ABC00B02FB12B31F00B851C85015010400B87DA
:101ACC001C870D851E8502FF48C00D851E8501FFF4
:101ADC0017C00D851E8500FF03C0BDE2BA8302C08E
:101AEC00BBE2BA830A81F101008381010F5F1F4FB2
:101AFC001801098D1A8D0F5F1F4F098F1A8F11C096
:101B0C000D851E8500FF0DC0F101B0E2B08381018F
:101B1C000F5F1F4F1801098D1A8D0F5F1F4F098F13
:101B2C001A8F2B853C8500E010E002171307A4F4F4
:101B3C00F101B0E3B08381010F5F1F4F1801098DD4
:101B4C001A8D0F5F1F4F098F1A8F0B851C85015043
:101B5C0010400B871C87E5CF4BC00D851E8503FD00
:101B6C001BC02B853C8500E010E002171307A4F482
:101B7C00F101B0E2B08381010F5F1F4F1801098D95
:101B8C001A8D0F5F1F4F098F1A8F0B851C85015003
:101B9C0010400B871C87E5CF0D851E8501FF17C0F4
:101BAC000D851E8500FF03C0BDE2BB8302C0BBE2F6
:101BBC00BB830B81F101008381010F5F1F4F180163
:101BCC00098D1A8D0F5F1F4F098F1A8F11C00D854C
:101BDC001E8500FF0DC0F101B0E2B08381010F5FE3
:101BEC001F4F1801098D1A8D0F5F1F4F098F1A8F08
:101BFC001A850A8501500A87112371F10A85202F55
:101C0C0030E0220F331F220F331F0DE713E3F901CE
:101C1C00E00FF11F45915591659175910D891E89C4
:101C2C002F89388D0E94DD018B019C014AE050E028
:101C3C0060E070E00E94DD018D019F01005DF1010B
:101C4C00008381010F5F1F4F1801098D1A8D0F5FE3
:101C5C001F4F098F1A8FCCCF2B893C8900E010E0E5
:101C6C0002171307A4F4F101B0E3B08381010F5FF5
:101C7C001F4F1801098D1A8D0F5F1F4F098F1A8F77
:101C8C000B891C89015010400B8B1C8BE5CF2885D0
:101C9C00398508E010E0021713071CF4B8E0BA8786
:101CAC0002C008850A870A84B0E01B2E08851985B6
:101CBC0000191109088719870A85002329F40D8555
:101CCC001E8513FD01C00DC0F101BEE2B083810180
:101CDC000F5F1F4F1801098D1A8D0F5F1F4F098F52
:101CEC001A8F7F926F925F924F923F922F922A841B
:101CFC000E9409022F903F904F905F906F907F90C1
:101D0C003F922F924F85588969897A890BD42F90ED
:101D1C003F900E94AE040D8B1E8B2F8B388F0A8543
:101D2C00002381F10A8501500A87202F30E0220F11
:101D3C00331F220F331F0DE713E3F901E00FF11FDF
:101D4C0045915591659175910D891E892F89388D15
:101D5C000E94DD018B019C014AE050E060E070E0E4
:101D6C000E94DD018D019F01005DF1010083810165
:101D7C000F5F1F4F1801098D1A8D0F5F1F4F098FB1
:101D8C001A8FCDCF08851985B02FB12BA1F0F10199
:101D9C00B0E3B08381010F5F1F4F1801098D1A8DBD
:101DAC000F5F1F4F098F1A8F08851985015010403E
:101DBC0008871987E7CF0D851E8503FF1DC02B856E
:101DCC003C8500E010E002171307B4F4F101B0E217
:101DDC00B08381010F5F1F4F1801098D1A8D0F5FA2
:101DEC001F4F098F1A8F0B851C85015010400B87D4
:101DFC001C87B02FB12B51F70C94E9040D851E856F
:101E0C00007C1070103009F4003009F052C00D85C0
:101E1C001E8504FF15C0F30101911191F801019188
:101E2C001191219131910D8B1E8B2F8B388FF301DA
:101E3C00019111910C5F1F4FF3010193119316C087
:101E4C00F30101911191F8010191119120E017FD1D
:101E5C002FEF322F0D8B1E8B2F8B388FF3010191AF
:101E6C0011910E5F1F4FF301019311934D895E8900
:101E7C006F89788D00E010E020E030E040175107CA
:101E8C0062077307ACF40D851E8503600D871E87F2
:101E9C000D881E8800E010E0001911090F88188CBD
:101EAC0020E030E0200931090D8B1E8B2F8B388FF1
:101EBC002CC00D851E8504FF15C0F30101911191F5
:101ECC00F80101911191219131910D8B1E8B2F8B6A
:101EDC00388FF301019111910C5F1F4FF3010193A6
:101EEC00119313C0F30101911191F801019111911A
:101EFC000D8B1E8BB0E0BF8BB88FF301019111914C
:101F0C000E5F1F4FF3010193119308851985103053
:101F1C0009F4003091F40D891E892F89388D3030E9
:101F2C0029F4203019F4103009F4003031F408850C
:101F3C0019850F5F1F4F088719870D85007C802F2F
:101F4C006CC0B1E0BA870A850A30F1F00A85202FFF
:101F5C0030E0220F331F220F331F0DE713E3F9017B
:101F6C00E00FF11F45915591659175910D891E8971
:101F7C002F89388D041715072607370708F404C076
:101F8C000A850F5F0A87DFCF53C0B1E0BA870A8595
:101F9C000830F1F00A85202F30E0220F331F220F7A
:101FAC00331F05EA13E3F901E00FF11F4591559139
:101FBC00659175910D891E892F89388D0417150728
:101FCC002607370708F404C00A850F5F0A87DFCF9E
:101FDC002FC0B1E0BA870A850C30F1F00A85202FAA
:101FEC0030E0220F331F220F331F0DE413E3F901EE
:101FFC00E00FF11F45915591659175910D891E89E1
:10200C002F89388D041715072607370708F404C0E5
:10201C000A850F5F0A87DFCF0BC0803009F491CFA0
:10202C00803C09F48ECF803809F4AFCF803489F22C
:10203C000A852885398510E0021713071CF40885DA
:10204C000A870BC0188529850A851017B0E02B0765
:10205C0024F40A850887B0E0B9870B851C85B02F5E
:10206C00B12B69F00D851E8503701070B02FB12B4C
:10207C0031F00B851C85015010400B871C872B857C
:10208C003C8508851985021713074CF408841984BC
:10209C000B851C85001911090B871C8703C0B0E048
:1020AC00BB87BC870D851E85047C1870183009F41D
:1020BC00003461F40B851C85B02FB12B31F00B85EE
:1020CC001C85015010400B871C8719C00D851E857F
:1020DC00007C1870183009F4003889F42B853C8585
:1020EC0002E010E0021713073CF40B851C8502502C
:1020FC0010400B871C8703C0B0E0BB87BC870D85E5
:10210C001E8502FF74C00D851E8501FF17C00D854D
:10211C001E8500FF03C0BDE2BC8302C0BBE2BC83D2
:10212C000C81F101008381010F5F1F4F1801098D94
:10213C001A8D0F5F1F4F098F1A8F3DC00D851E859D
:10214C0000FF0EC0F101B0E2B08381010F5F1F4FA1
:10215C001801098D1A8D0F5F1F4F098F1A8F2BC015
:10216C000D851E85007C1870183009F4003819F59F
:10217C00F101B0E3B08381010F5F1F4F1801098D8E
:10218C001A8D0F5F1F4F098F1A8F0D851E8505FF46
:10219C0003C0B8E5BD8302C0B8E7BD830D81F10172
:1021AC00008381010F5F1F4F1801098D1A8D0F5F7E
:1021BC001F4F098F1A8F0B851C85B02FB12BB1F0D7
:1021CC00F101B0E3B08381010F5F1F4F1801098D3E
:1021DC001A8D0F5F1F4F098F1A8F0B851C850150AD
:1021EC0010400B871C87B02FB12B51F78CC00B857F
:1021FC001C85B02FB12BD1F00D851E8503FD16C0AB
:10220C00F101B0E2B08381010F5F1F4F1801098DFE
:10221C001A8D0F5F1F4F098F1A8F0B851C8501506C
:10222C0010400B871C87B02FB12B51F70D851E85E5
:10223C0001FF17C00D851E8500FF03C0BDE2BE83E4
:10224C0002C0BBE2BE830E81F101008381010F5FEE
:10225C001F4F1801098D1A8D0F5F1F4F098F1A8F91
:10226C0011C00D851E8500FF0DC0F101B0E2B083D9
:10227C0081010F5F1F4F1801098D1A8D0F5F1F4FC2
:10228C00098F1A8F0D851E85007C1870183009F483
:10229C00003471F4F101B0E3B08381010F5F1F4F83
:1022AC001801098D1A8D0F5F1F4F098F1A8F2BC0C4
:1022BC000D851E85007C1870183009F4003819F54E
:1022CC00F101B0E3B08381010F5F1F4F1801098D3D
:1022DC001A8D0F5F1F4F098F1A8F0D851E8505FFF5
:1022EC0003C0B8E5BF8302C0B8E7BF830F81F1011B
:1022FC00008381010F5F1F4F1801098D1A8D0F5F2D
:10230C001F4F098F1A8F288539850A8510E002170F
:10231C00130774F4F101B0E3B08381010F5F1F4F19
:10232C001801098D1A8D0F5F1F4F098F1A8FEBCF74
:10233C00288539850885198501501040088719872B
:10234C00B22FB32B09F4ADC00D85007C0F8F8FC05D
:10235C00088519859801220F331F220F331F0DE7B3
:10236C0013E3F901E00FF11F4591559165917591BA
:10237C000D891E892F89388D0E94DD018B019C01EE
:10238C004AE050E060E070E00E94DD018D019F01A9
:10239C00005D0A8778C00D851E8505FF26C008855F
:1023AC0019859801220F331F220F331F05EA13E3FF
:1023BC00F901E00FF11F45915591659175910D89CA
:1023CC001E892F89388D0E94DD018B019C01A8018B
:1023DC00B9014F7050706070707007EE13E3F80124
:1023EC00E40FF51F04910A8725C00885198598010B
:1023FC00220F331F220F331F05EA13E3F901E00FFD
:10240C00F11F45915591659175910D891E892F8903
:10241C00388D0E94DD018B019C01A801B9014F7020
:10242C0050706070707006ED13E3F801E40FF51F47
:10243C0004910A8728C0088519859801220F331F3B
:10244C00220F331F0DE413E3F901E00FF11F459147
:10245C005591659175910D891E892F89388D0E9432
:10246C00DD018B019C010770005D0A870CC00F8D8C
:10247C00003009F46DCF003C09F46ACF003809F440
:10248C008ACF0034C1F20A85F101008381010F5F0C
:10249C001F4F1801098D1A8D0F5F1F4F098F1A8F4F
:1024AC0047CF0D851E8503FF1DC02B853C8500E0A5
:1024BC0010E002171307B4F4F101B0E2B08381010C
:1024CC000F5F1F4F1801098D1A8D0F5F1F4F098F5A
:1024DC001A8F0B851C85015010400B871C87B02F61
:1024EC00B12B51F70C94E904098D1A8DA296CDBF2E
:0824FC00DEBFDF91CF910895CE
:1007600009E3021528F0B0E32B1610F001E001C0F8
:0407700000E0089508
:10041200CF93DF93CDB7DEB72497CDBFDEBF219652
:10042200B0E02B160CF0CCC000E00219202E0E36E4
:100432000CF46FC02F9244E650E0022D10E027FC2E
:100442001FEF55DE062F2F9010E007FD1FEF0E5E07
:100452001F4F9801220F331F220F331F09E113E3AD
:10046200F901E00FF11F059115912591359108834E
:1004720019832A833B832F9244E650E0022D10E039
:1004820027FC1FEF34DE082F10E007FD1FEF4AE0C4
:1004920050E02DDE062F10E007FD1FEF075F1F4F14
:1004A2009801220F331F220F331F09E113E3F901D1
:1004B200E00FF11F45915591659175910881198160
:1004C2002A813B810E9498122F90088319832A83E4
:1004D2003B834AE050E0022D10E027FC1FEF07DECD
:1004E200082F202F30E007FD3FEF220F331F220F8E
:1004F200331F09E113E3F901E00FF11F4591559113
:1005020065917591088119812A813B810E94981217
:1005120020C10AE002150CF041C02F924AE050E0DF
:10052200022D10E027FC1FEFE2DD062F2F9010E0D6
:1005320007FD1FEF075F1F4F9801220F331F220F86
:10054200331F09E113E3F901E00FF11F0591159142
:1005520025913591088319832A833B834AE050E031
:10056200022D10E027FC1FEFC2DD082F202F30E004
:1005720007FD3FEF220F331F220F331F09E113E361
:10058200F901E00FF11F459155916591759108812F
:1005920019812A813B810E949812DBC0222D30E012
:1005A20027FC3FEF220F331F220F331F09E113E312
:1005B200F901E00FF11F0591159125913591C9C0FF
:1005C200BEE62B160CF46FC02F9244E650E0022DCB
:1005D20010E027FC1FEF8BDD062F2F9010E007FDA8
:1005E2001FEF0E5E1F4F9801220F331F220F331F82
:1005F20005EE12E3F901E00FF11F05911591259126
:100602003591088319832A833B832F9244E650E075
:10061200022D10E027FC1FEF6ADD082F10E007FD16
:100622001FEF4AE050E063DD062F10E007FD1FEFE9
:10063200075F1F4F9801220F331F220F331F05EE52
:1006420012E3F901E00FF11F459155916591759102
:10065200088119812A813B810E9498122F90088378
:1006620019832A833B834AE050E0022D10E027FCE5
:100672001FEF3DDD082F202F30E007FD3FEF220F57
:10068200331F220F331F05EE12E3F901E00FF11FB2
:100692004591559165917591088119812A813B8116
:1006A2000E94981256C00AE002150CF041C02F9227
:1006B2004AE050E0022D10E027FC1FEF18DD062F64
:1006C2002F9010E007FD1FEF075F1F4F9801220FC9
:1006D200331F220F331F05EE12E3F901E00FF11F62
:1006E2000591159125913591088319832A833B83BE
:1006F2004AE050E0022D10E027FC1FEFF8DC082F43
:10070200202F30E007FD3FEF220F331F220F331F50
:1007120005EE12E3F901E00FF11F45915591659144
:100722007591088119812A813B810E94981211C01A
:10073200222D30E027FC3FEF220F331F220F331F01
:1007420005EE12E3F901E00FF11F059115912591D4
:0E07520035912396CDBFDEBFDF91CF91089584
:1000F000C801BA0197FB092E07260AD077FD04D064
:100100000CD006D000201AF4709561957F4F0895A9
:10011000F6F7909581959F4F0895AA1BBB1B51E15F
:1001200007C0AA1FBB1FA617B70710F0A61BB70B67
:10013000881F991F5A95A9F780959095BC01CD010C
:040140000895089581
:10079A00CF93DF93CDB7DEB72497CDBFDEBF2196C7
:1007AA00BEE62B1608F45DC044E6022D87DC10E095
:1007BA000E5E1F4F9801220F331F220F331F09E1CC
:1007CA0013E3F901E00FF11F059115912591359178
:1007DA002F9240E050E060E07FE30E9498122F9051
:1007EA00088319832A833B8344E6022D67DC092F99
:1007FA004AE064DC10E0075F1F4F9801220F331FA5
:10080A00220F331F09E113E3F901E00FF11F4591AC
:10081A00559165917591088119812A813B812F92A1
:10082A000E9498122F90088319832A833B834AE0F7
:10083A00022D44DC092F202F30E0220F331F220F14
:10084A00331F09E113E3F901E00FF11F45915591B7
:10085A0065917591088119812A813B810E949812BC
:10086A0052C00AE00215D0F54AE0022D27DC10E05A
:10087A00075F1F4F9801220F331F220F331F09E111
:10088A0013E3F901E00FF11F0591159125913591B7
:10089A002F9240E050E060E07FE30E9498122F9090
:1008AA00088319832A833B834AE0022D07DC092F38
:1008BA00202F30E0220F331F220F331F09E113E3E9
:1008CA00F901E00FF11F45915591659175910881E4
:1008DA0019812A813B810E94981215C0222D30E08D
:1008EA00220F331F220F331F09E113E3F901E00F2F
:1008FA00F11F059115912591359140E050E060E096
:10090A007FE30E9498122396CDBFDEBFDF91CF917D
:02091A0008953E
:1000C600992779E004C0991F941708F0941B001F24
:0800D6007A95C9F70095089521
:100774002227002400FF02C0040E251F440F551F2A
:100784004115510529F0169507951050004091F731
:06079400122F002D089554
:0E0404009FDE1CF40024039401C00024089520
:0E014400042E152E262E372E98DF0023089548
:10007E0058D4332332F007D011F001E003C000272B
:06008E0001C00FEF089510
:0E03AC00CBDE19F00024039401C00024089554
:0E039E00D2DE1CF00024039401C00024089558
:0603FE0068948DD2089501
:1003BA00C9019A01AB01B801A1E21A2EAA1BBB1B03
:1003CA00FD010DC0AA1FBB1FEE1FFF1FA217B30717
:1003DA00E407F50720F0A20BB30BE40BF50B661F3D
:1003EA00771F881F991F1A9469F7609570958095F1
:0403FA00909508953D
:102C0C002F920FC0B0E82B2E19C0B0EC2B2E16C093
:102C1C00B4E92B2E13C0B4ED2B2E10C0B0E82B2E24
:102C2C000DC0B1E02B1671F3B2E02B1671F3B3E0CB
:102C3C002B1671F3B4E02B1671F3F0CF032D01506A
:102C4C00020D202E202E7ADFB091D900BE7FB093DA
:102C5C00D90010E0E12FF0E0E40DF51D0081002318
:102C6C0079F0E12FF0E0E40DF51D00811F932F9218
:102C7C00202EB0DC2F901F91012F0F5F102FEACF69
:0E2C8C00B091D900B160B093D9002F90089597
:1025E000B091D900BE7FB093D900AED2B091D900DE
:0825F000B160B093D900089519
:102756002F923F923F922F92BFE92B2EB0E03B2E55
:1027660004DFBEE82B2EB0E03B2EFFDEBDE02B2EB5
:102776000E94D2042F903F90F8DEBAE12B2E0E94E1
:10278600D204BDE02B2E0E94D2043F902F900895D4
:0027960043
:0A25AA0005900D920197E1F70895E6
:10279600B2EDB093DA00B4E0B093DB00BFEFB093D4
:1027A600DC00BFEFB093DD00BFEFB093E000BFEFFA
:1027B600B093E100BFEFB093DE00BFEFB093DF0050
:1027C600B1B3BE7FB1BBB1B3B260B1BB0AB10861F0
:0827D6000AB9B6E8B0BD089590
:10340800A0E6B0E0EEE6F2E387E790E00E94D5128E
:02341800089515
:102FCA000F931F932F933F93EF93FF93BF93BFB733
:102FDA00BF932F923F920091CF000F5F0093CF00D3
:102FEA000A3F08F10091BC000F5F0093BC000A3051
:102FFA00B8F0B0E0B093BC0020916000309161005D
:10300A000091A90010E0021713072CF4B1EB2B2E44
:10301A00B0E03B2E9BDBB0E0B0936000B093610060
:10302A00B0E0B093CF00B3E8B2BF3F902F90BF910A
:10303A00BFBFBF91FF91EF913F912F911F910F91C8
:02304A001895D7
:10304C000F921F922F920F931F932F933F934F9397
:10305C005F938F939F93AF93BF93EF93FF93EF93F4
:10306C00FF93BF93BFB7BF93CF93DF93CDB7DEB7BB
:10307C002697CDBFDEBF21962F923F924F925F9243
:10308C00B0E0B883B983B0E0BA83BB83B1E0BC8352
:10309C00B6E0BD83B1E02B2E51DDBBEA4B2EB0E088
:1030AC005B2EB1E03B2EB2E02B2EAADDB9EC4B2E01
:1030BC00B0E05B2EB1E03B2EB1E02B2EA1DDA6DB08
:1030CC00402F013401F5B1E02B2E38DDB3EC4B2E43
:1030DC00B0E05B2EB1E03B2EB2E02B2E91DDBDEBD0
:1030EC004B2EB0E05B2EB1E03B2EB1E02B2E88DDF9
:1030FC00B6E0BD83B1E0BC83B0E0B883B983B0E087
:10310C00BA83BB838BC04B3209F488C04D3209F4AF
:10311C0085C0483709F482C04F3209F47FC04D3363
:10312C0051F40C81013029F4B6E0BD83B2E0BC83CC
:10313C0001C075C073C01D8108E0011708F46EC092
:10314C00442E3D802C8027DC0C81013009F032C0EC
:10315C0027C0042F10E00053104044E650E04EDB33
:10316C0028813981020F131F0883198322C0042F71
:10317C0010E0005310404AE050E040DB28813981D8
:10318C00020F131F0883198314C0242F30E020531F
:10319C00304008811981020F131F0883198309C05D
:1031AC000D810630B1F20D81073009F30D81083025
:1031BC0061F331C027C0042F10E00053104044E6E7
:1031CC0050E01CDB2A813B81020F131F0A831B83F7
:1031DC0022C0042F10E0005310404AE050E00EDBF8
:1031EC002A813B81020F131F0A831B8314C0242FD7
:1031FC0030E0205330400A811B81020F131F0A83D9
:10320C001B8309C00D810630B1F20D81073009F323
:10321C000D81083061F30D810F5F0D8350CF3A8023
:10322C002880D7DA34DD5F904F903F902F90259611
:10323C00CDBFDEBFDF91CF91BF91BFBFBF91FF91DB
:10324C00EF91FF91EF91BF91AF919F918F915F9112
:10325C004F913F912F911F910F912F901F900F9095
:02326C001895B3
:10281800CF93DF93CDB7DEB76197CDBFDEBF2196EB
:1028280010E0E6ECF3E3DE01119680E190E0B9DE1A
:10283800B0EFB4BBBFE0B5BB00C002E00A95F1F74A
:102848000000000003B30F700F30B9F700C002E0BA
:102858000A95F1F70000000003B30F700F30B9F7C5
:1028680000C002E00A95F1F70000000003B30F7002
:102878000F30B9F31F931CE907ED0A95F1F71A9584
:10288800E1F7000000001F9100C002E00A95F1F78F
:102898000000000003B30F700F30B9F3BFEEB5BBF3
:1028A80002E00A95F1F70000000003B30F70202F33
:1028B8000F3021F0B0E0B883022F2FC0BFEDB5BBB9
:1028C80002E00A95F1F70000000003B30F70202F13
:1028D8000F3021F0B1E0B883022F1FC0BFEBB5BBAA
:1028E80002E00A95F1F70000000003B30F70202FF3
:1028F8000F3021F0B2E0B883022F0FC0BFE7B5BB9D
:1029080002E00A95F1F70000000003B30F70202FD2
:102918000F3011F0B3E0B883022F30C01C2F2D2FD9
:102928001F5F2F4F0881E02FF0E0E10FF21F0081B9
:10293800102F2CC01C2F2D2F1B5F2F4F0881E02F2D
:10294800F0E0E10FF21F0081102F20C01C2F2D2F67
:10295800175F2F4F0881E02FF0E0E10FF21F008191
:10296800102F14C01C2F2D2F135F2F4F0881E02F1D
:10297800F0E0E10FF21F0081102F08C00E3071F255
:102988000D30C1F20B3011F3073061F3012F60965F
:0A299800CDBFDEBFDF91CF9108959F
:1029A2002F920FC0B0E82B2E19C0B0EC2B2E16C000
:1029B200B4E92B2E13C0B4ED2B2E10C0B0E82B2E91
:1029C2000DC0B1E02B1671F3B2E02B1671F3B3E038
:1029D2002B1671F3B4E02B1671F3F0CF032D0150D7
:1029E200020D202EB091D900B160B093D900202EF3
:1029F200AAD0B091D900BE7FB093D900242CA3D025
:0E2A0200B091D900B160B093D9002F90089523
:1027DE002F923F924F923F92422CB0E62B2EB0E0BA
:1027EE003B2EE1DE3F90432CB0E12B2EB0E03B2E92
:0A27FE00DADE4F903F902F9008950F
:1025B4000CB301FF01C0FCCF032D10E00FBB022DB3
:0A25C4000EBB4DBAE29AE19A0895A9
:102808009801249F8001259F100D349F100D089575
:00281800C0
:0F33F80074656D702069733A20256420202000D1
:103319000000803FCDCCCC3D0AD7233C6F12833AC5
:1033290017B7D138ACC52737BD37863595BFD633E2
:1033390077CC2B325F708930FFE6DB2E08E53C1E27
:043349006042A20D2F
:1032E5000000803F000020410000C84200007A44F1
:1032F50000401C460050C347002474498096184B73
:1033050020BCBE4C286B6E4EF9021550EC78AD60B2
:04331500CAF249713E
:10337D00010000000A00000064000000E8030000E6
:10338D0010270000A086010040420F008096980093
:08339D0000E1F50500CA9A3BAE
:1033A50001000000100000000001000000100000F6
:1033B50000000100000010000000000100000010E6
:10334D000100000008000000400000000002000025
:10335D0000100000008000000000040000002000AC
:10336D000000000100000008000000400000000007
:1033E7003031323334353637383941424344454634
:0133F70000D5
:1033D6003031323334353637383961626364656685
:0133E60000E6
:02326E0000005E
:0232700000005C
:0232720000005A
:1032740069742773204F4B206E6F77203A29200002
:0D32840074656D70206973204869676800EB
:0B32910041542B434D47463D310D00DA
:10329C00222B323439393038303030333435220D3A
:0132AC000021
:0932AD0041542B434D47533D00F1
:0132B6001BFC
:0132B7000A0C
:0132B8000015
:0632B900526174653A0049
:0B32BF0072617465206572726F72000E
:0132CA000003
:0632CB0054656D703A002D
:0632D100526174653A0031
:0632D70054656D703A0021
:0132DD0000F0
:0732DE00286E756C6C2900DD
:0133C5000007
:0433C6003734314126
:0433CA003835323030
:0433CE003936333D1C
:0433D2002F782D2BF8
:00000001FF
